{
  "contractName": "DrewsReviews",
  "abi": [
    {
      "constant": true,
      "inputs": [],
      "name": "owner",
      "outputs": [
        {
          "name": "",
          "type": "address"
        }
      ],
      "payable": false,
      "stateMutability": "view",
      "type": "function"
    },
    {
      "constant": true,
      "inputs": [],
      "name": "userReviewIndex",
      "outputs": [
        {
          "name": "",
          "type": "uint256"
        }
      ],
      "payable": false,
      "stateMutability": "view",
      "type": "function"
    },
    {
      "constant": true,
      "inputs": [],
      "name": "reviewIndex",
      "outputs": [
        {
          "name": "",
          "type": "uint256"
        }
      ],
      "payable": false,
      "stateMutability": "view",
      "type": "function"
    },
    {
      "inputs": [],
      "payable": false,
      "stateMutability": "nonpayable",
      "type": "constructor"
    },
    {
      "anonymous": false,
      "inputs": [
        {
          "indexed": false,
          "name": "_filmId",
          "type": "uint256"
        },
        {
          "indexed": false,
          "name": "_name",
          "type": "string"
        },
        {
          "indexed": false,
          "name": "_review",
          "type": "string"
        },
        {
          "indexed": false,
          "name": "_imageSource",
          "type": "string"
        },
        {
          "indexed": false,
          "name": "_score",
          "type": "uint256"
        }
      ],
      "name": "newReview",
      "type": "event"
    },
    {
      "anonymous": false,
      "inputs": [
        {
          "indexed": false,
          "name": "_filmId",
          "type": "uint256"
        },
        {
          "indexed": false,
          "name": "_name",
          "type": "string"
        },
        {
          "indexed": false,
          "name": "_review",
          "type": "string"
        },
        {
          "indexed": false,
          "name": "_imageSource",
          "type": "string"
        },
        {
          "indexed": false,
          "name": "_score",
          "type": "uint256"
        },
        {
          "indexed": false,
          "name": "_deleted",
          "type": "uint256"
        }
      ],
      "name": "editedReview",
      "type": "event"
    },
    {
      "anonymous": false,
      "inputs": [
        {
          "indexed": false,
          "name": "_filmId",
          "type": "uint256"
        },
        {
          "indexed": false,
          "name": "_userReviewId",
          "type": "uint256"
        },
        {
          "indexed": false,
          "name": "_userName",
          "type": "string"
        },
        {
          "indexed": false,
          "name": "_review",
          "type": "string"
        },
        {
          "indexed": false,
          "name": "_score",
          "type": "uint256"
        }
      ],
      "name": "newUserReview",
      "type": "event"
    },
    {
      "constant": false,
      "inputs": [
        {
          "name": "_name",
          "type": "string"
        },
        {
          "name": "_review",
          "type": "string"
        },
        {
          "name": "_reviewdate",
          "type": "uint256"
        },
        {
          "name": "_score",
          "type": "uint256"
        },
        {
          "name": "_imageSource",
          "type": "string"
        }
      ],
      "name": "addReview",
      "outputs": [],
      "payable": false,
      "stateMutability": "nonpayable",
      "type": "function"
    },
    {
      "constant": false,
      "inputs": [
        {
          "name": "_filmId",
          "type": "uint256"
        },
        {
          "name": "_name",
          "type": "string"
        },
        {
          "name": "_review",
          "type": "string"
        },
        {
          "name": "_reviewdate",
          "type": "uint256"
        },
        {
          "name": "_score",
          "type": "uint256"
        },
        {
          "name": "_imageSource",
          "type": "string"
        },
        {
          "name": "_deleted",
          "type": "uint256"
        }
      ],
      "name": "editReview",
      "outputs": [],
      "payable": false,
      "stateMutability": "nonpayable",
      "type": "function"
    },
    {
      "constant": false,
      "inputs": [
        {
          "name": "_filmId",
          "type": "uint256"
        },
        {
          "name": "_username",
          "type": "string"
        },
        {
          "name": "_review",
          "type": "string"
        },
        {
          "name": "_score",
          "type": "uint256"
        }
      ],
      "name": "addUserReview",
      "outputs": [],
      "payable": false,
      "stateMutability": "nonpayable",
      "type": "function"
    },
    {
      "constant": true,
      "inputs": [
        {
          "name": "_filmId",
          "type": "uint256"
        }
      ],
      "name": "getReview",
      "outputs": [
        {
          "name": "",
          "type": "string"
        },
        {
          "name": "",
          "type": "string"
        },
        {
          "name": "",
          "type": "uint256"
        },
        {
          "name": "",
          "type": "uint256"
        },
        {
          "name": "",
          "type": "string"
        },
        {
          "name": "",
          "type": "uint256"
        }
      ],
      "payable": false,
      "stateMutability": "view",
      "type": "function"
    },
    {
      "constant": true,
      "inputs": [
        {
          "name": "_userReviewId",
          "type": "uint256"
        }
      ],
      "name": "getUserReview",
      "outputs": [
        {
          "name": "",
          "type": "uint256"
        },
        {
          "name": "",
          "type": "string"
        },
        {
          "name": "",
          "type": "string"
        },
        {
          "name": "",
          "type": "uint256"
        }
      ],
      "payable": false,
      "stateMutability": "view",
      "type": "function"
    }
  ],
  "bytecode": "0x6080604052737753233bfe961ec770602e3f80900e26a5357f36600260006101000a81548173ffffffffffffffffffffffffffffffffffffffff021916908373ffffffffffffffffffffffffffffffffffffffff16021790555034801561006557600080fd5b506000808190555060006001819055506112f4806100846000396000f30060806040526004361061008e576000357c0100000000000000000000000000000000000000000000000000000000900463ffffffff1680630b19181c1461009357806320500cac1461015657806337119e931461025f5780638da5cb5b1461037f5780638e7317a6146103d6578063990581b6146104f3578063e45fc69b14610686578063fce52c6b146106b1575b600080fd5b34801561009f57600080fd5b5061015460048036038101908080359060200190929190803590602001908201803590602001908080601f0160208091040260200160405190810160405280939291908181526020018383808284378201915050505050509192919290803590602001908201803590602001908080601f0160208091040260200160405190810160405280939291908181526020018383808284378201915050505050509192919290803590602001909291905050506106dc565b005b34801561016257600080fd5b5061025d600480360381019080803590602001908201803590602001908080601f0160208091040260200160405190810160405280939291908181526020018383808284378201915050505050509192919290803590602001908201803590602001908080601f01602080910402602001604051908101604052809392919081815260200183838082843782019150505050505091929192908035906020019092919080359060200190929190803590602001908201803590602001908080601f01602080910402602001604051908101604052809392919081815260200183838082843782019150505050505091929192905050506108a9565b005b34801561026b57600080fd5b5061028a60048036038101908080359060200190929190505050610b0f565b604051808581526020018060200180602001848152602001838103835286818151815260200191508051906020019080838360005b838110156102da5780820151818401526020810190506102bf565b50505050905090810190601f1680156103075780820380516001836020036101000a031916815260200191505b50838103825285818151815260200191508051906020019080838360005b83811015610340578082015181840152602081019050610325565b50505050905090810190601f16801561036d5780820380516001836020036101000a031916815260200191505b50965050505050505060405180910390f35b34801561038b57600080fd5b50610394610cc1565b604051808273ffffffffffffffffffffffffffffffffffffffff1673ffffffffffffffffffffffffffffffffffffffff16815260200191505060405180910390f35b3480156103e257600080fd5b506104f160048036038101908080359060200190929190803590602001908201803590602001908080601f0160208091040260200160405190810160405280939291908181526020018383808284378201915050505050509192919290803590602001908201803590602001908080601f01602080910402602001604051908101604052809392919081815260200183838082843782019150505050505091929192908035906020019092919080359060200190929190803590602001908201803590602001908080601f016020809104026020016040519081016040528093929190818152602001838380828437820191505050505050919291929080359060200190929190505050610ce7565b005b3480156104ff57600080fd5b5061051e60048036038101908080359060200190929190505050610f43565b6040518080602001806020018781526020018681526020018060200185815260200184810384528a818151815260200191508051906020019080838360005b8381101561057857808201518184015260208101905061055d565b50505050905090810190601f1680156105a55780820380516001836020036101000a031916815260200191505b50848103835289818151815260200191508051906020019080838360005b838110156105de5780820151818401526020810190506105c3565b50505050905090810190601f16801561060b5780820380516001836020036101000a031916815260200191505b50848103825286818151815260200191508051906020019080838360005b83811015610644578082015181840152602081019050610629565b50505050905090810190601f1680156106715780820380516001836020036101000a031916815260200191505b50995050505050505050505060405180910390f35b34801561069257600080fd5b5061069b6111b7565b6040518082815260200191505060405180910390f35b3480156106bd57600080fd5b506106c66111bd565b6040518082815260200191505060405180910390f35b6106e46111c3565b60018060008282540192505081905550608060405190810160405280868152602001858152602001848152602001838152509050806004600060015481526020019081526020016000206000820151816000015560208201518160010190805190602001906107549291906111ec565b5060408201518160020190805190602001906107719291906111ec565b50606082015181600301559050507fd5288edcfc10a1de6a97c402599ad3cc1d03c339725e021efdfa81ae6fc0952485600154868686604051808681526020018581526020018060200180602001848152602001838103835286818151815260200191508051906020019080838360005b838110156107fd5780820151818401526020810190506107e2565b50505050905090810190601f16801561082a5780820380516001836020036101000a031916815260200191505b50838103825285818151815260200191508051906020019080838360005b83811015610863578082015181840152602081019050610848565b50505050905090810190601f1680156108905780820380516001836020036101000a031916815260200191505b5097505050505050505060405180910390a15050505050565b6108b161126c565b6001600080828254019250508190555060c0604051908101604052808781526020018681526020018581526020018481526020018381526020016000815250905080600360008054815260200190815260200160002060008201518160000190805190602001906109239291906111ec565b5060208201518160010190805190602001906109409291906111ec565b50604082015181600201556060820151816003015560808201518160040190805190602001906109719291906111ec565b5060a082015181600501559050507f01e672598a989edf6316dd8a38374068fd7a0aea8e78093a6e38b3d1b0fff6c86000548787858760405180868152602001806020018060200180602001858152602001848103845288818151815260200191508051906020019080838360005b838110156109fb5780820151818401526020810190506109e0565b50505050905090810190601f168015610a285780820380516001836020036101000a031916815260200191505b50848103835287818151815260200191508051906020019080838360005b83811015610a61578082015181840152602081019050610a46565b50505050905090810190601f168015610a8e5780820380516001836020036101000a031916815260200191505b50848103825286818151815260200191508051906020019080838360005b83811015610ac7578082015181840152602081019050610aac565b50505050905090810190601f168015610af45780820380516001836020036101000a031916815260200191505b509850505050505050505060405180910390a1505050505050565b60006060806000610b1e6111c3565b600460008781526020019081526020016000206080604051908101604052908160008201548152602001600182018054600181600116156101000203166002900480601f016020809104026020016040519081016040528092919081815260200182805460018160011615610100020316600290048015610be05780601f10610bb557610100808354040283529160200191610be0565b820191906000526020600020905b815481529060010190602001808311610bc357829003601f168201915b50505050508152602001600282018054600181600116156101000203166002900480601f016020809104026020016040519081016040528092919081815260200182805460018160011615610100020316600290048015610c825780601f10610c5757610100808354040283529160200191610c82565b820191906000526020600020905b815481529060010190602001808311610c6557829003601f168201915b50505050508152602001600382015481525050905080600001518160200151826040015183606001518292508191509450945094509450509193509193565b600260009054906101000a900473ffffffffffffffffffffffffffffffffffffffff1681565b610cef61126c565b60c06040519081016040528088815260200187815260200186815260200185815260200184815260200183815250905080600360008a81526020019081526020016000206000820151816000019080519060200190610d4f9291906111ec565b506020820151816001019080519060200190610d6c9291906111ec565b5060408201518160020155606082015181600301556080820151816004019080519060200190610d9d9291906111ec565b5060a082015181600501559050507f39a66161a0ff0b6832d2f60d015574cacd274a911f3e0447ec28379b154173c088888886888760405180878152602001806020018060200180602001868152602001858152602001848103845289818151815260200191508051906020019080838360005b83811015610e2c578082015181840152602081019050610e11565b50505050905090810190601f168015610e595780820380516001836020036101000a031916815260200191505b50848103835288818151815260200191508051906020019080838360005b83811015610e92578082015181840152602081019050610e77565b50505050905090810190601f168015610ebf5780820380516001836020036101000a031916815260200191505b50848103825287818151815260200191508051906020019080838360005b83811015610ef8578082015181840152602081019050610edd565b50505050905090810190601f168015610f255780820380516001836020036101000a031916815260200191505b50995050505050505050505060405180910390a15050505050505050565b60608060008060606000610f5561126c565b6003600089815260200190815260200160002060c06040519081016040529081600082018054600181600116156101000203166002900480601f01602080910402602001604051908101604052809291908181526020018280546001816001161561010002031660029004801561100d5780601f10610fe25761010080835404028352916020019161100d565b820191906000526020600020905b815481529060010190602001808311610ff057829003601f168201915b50505050508152602001600182018054600181600116156101000203166002900480601f0160208091040260200160405190810160405280929190818152602001828054600181600116156101000203166002900480156110af5780601f10611084576101008083540402835291602001916110af565b820191906000526020600020905b81548152906001019060200180831161109257829003601f168201915b505050505081526020016002820154815260200160038201548152602001600482018054600181600116156101000203166002900480601f0160208091040260200160405190810160405280929190818152602001828054600181600116156101000203166002900480156111655780601f1061113a57610100808354040283529160200191611165565b820191906000526020600020905b81548152906001019060200180831161114857829003601f168201915b505050505081526020016005820154815250509050806000015181602001518260400151836060015184608001518560a001518595508494508191509650965096509650965096505091939550919395565b60015481565b60005481565b608060405190810160405280600081526020016060815260200160608152602001600081525090565b828054600181600116156101000203166002900490600052602060002090601f016020900481019282601f1061122d57805160ff191683800117855561125b565b8280016001018555821561125b579182015b8281111561125a57825182559160200191906001019061123f565b5b50905061126891906112a3565b5090565b60c0604051908101604052806060815260200160608152602001600081526020016000815260200160608152602001600081525090565b6112c591905b808211156112c15760008160009055506001016112a9565b5090565b905600a165627a7a72305820dc57d1ec2c0eb4fe3e391b4d15fd4032b9e36424b8542b768649c47b7f1f3ed10029",
  "source": "pragma solidity ^0.4.23;\n\ncontract DrewsReviews {\n    \n    uint public reviewIndex;\n    uint public userReviewIndex;\n    address public owner = 0x7753233bfe961eC770602e3F80900E26A5357F36;\n    \n    mapping (uint => Review) reviewList;\n    mapping (uint => userReview) userReviewList;\n\n\n\tstruct Review {\n\t\tstring name;\n\t\tstring review;\n\t\tuint reviewDate;\n\t\tuint score;\n\t\tstring imageSource;\n\t\tuint deleted;\n\t}\n\n\tstruct userReview {\n\t\tuint filmId;\n\t\tstring userName;\n\t\tstring review;\n\t\tuint score;\n\t\t//uint deleted;\n\t}\n\t\nconstructor () public {\n    reviewIndex = 0;\n    userReviewIndex = 0;\n}\n\nevent newReview(uint _filmId, string _name, string _review, string _imageSource, uint _score);\n\nevent editedReview(uint _filmId, string _name, string _review, string _imageSource, uint _score, uint _deleted);\n\nevent newUserReview(uint _filmId, uint _userReviewId, string _userName, string _review, uint _score);\n\nfunction addReview(string _name, string _review, uint _reviewdate, uint _score, string _imageSource) public {\n\t//assert(msg.sender == owner);\n\n    reviewIndex += 1;\n    Review memory review = Review (_name, _review, _reviewdate, _score, _imageSource, 0 );\n    reviewList[reviewIndex] = review;\n    emit newReview(reviewIndex, _name, _review, _imageSource, _score);\n}\n\nfunction editReview(uint _filmId, string _name, string _review, uint _reviewdate, uint _score, string _imageSource, uint _deleted) public {\n\t//assert(msg.sender == owner);\n    \n    Review memory review = Review (_name, _review, _reviewdate, _score, _imageSource, _deleted );\n\n    reviewList[_filmId] = review;\n    emit editedReview(_filmId, _name, _review, _imageSource, _score, _deleted);\n}\n\nfunction addUserReview(uint _filmId, string _username, string _review, uint _score) public {\n    userReviewIndex += 1;\n    \n    userReview memory _userReview = userReview (_filmId, _username, _review, _score);\n    userReviewList[userReviewIndex] = _userReview;\n    emit newUserReview(_filmId, userReviewIndex, _username, _review, _score);\n}\n\nfunction getReview(uint _filmId) view public returns (string, string, uint, uint, string, uint) {\n\tReview memory review = reviewList[_filmId];\n\treturn (review.name, review.review, review.reviewDate, review.score, review.imageSource, review.deleted);\n}\n\nfunction getUserReview(uint _userReviewId) view public returns (uint, string, string, uint) {\n\tuserReview memory _userReview = userReviewList[_userReviewId];\n\treturn (_userReview.filmId, _userReview.userName, _userReview.review, _userReview.score);\n}\n\n}",
  "sourcePath": "/Users/mcplums/Repos/Drews Reviews/contracts/DrewsReviews.sol",
  "compiler": {
    "name": "solc",
    "version": "0.4.24+commit.e67f0147.Emscripten.clang"
  },
  "schemaVersion": "2.0.1",
  "updatedAt": "2018-11-27T18:55:35.980Z"
}