{
  "contractName": "DrewsReviews",
  "abi": [
    {
      "constant": true,
      "inputs": [],
      "name": "userReviewIndex",
      "outputs": [
        {
          "name": "",
          "type": "uint256"
        }
      ],
      "payable": false,
      "stateMutability": "view",
      "type": "function"
    },
    {
      "constant": true,
      "inputs": [],
      "name": "reviewIndex",
      "outputs": [
        {
          "name": "",
          "type": "uint256"
        }
      ],
      "payable": false,
      "stateMutability": "view",
      "type": "function"
    },
    {
      "inputs": [],
      "payable": false,
      "stateMutability": "nonpayable",
      "type": "constructor"
    },
    {
      "constant": false,
      "inputs": [
        {
          "name": "_name",
          "type": "string"
        },
        {
          "name": "_review",
          "type": "string"
        },
        {
          "name": "_reviewdate",
          "type": "uint256"
        },
        {
          "name": "_score",
          "type": "uint256"
        },
        {
          "name": "_imageSource",
          "type": "string"
        }
      ],
      "name": "addReview",
      "outputs": [],
      "payable": false,
      "stateMutability": "nonpayable",
      "type": "function"
    },
    {
      "constant": false,
      "inputs": [
        {
          "name": "_filmId",
          "type": "uint256"
        },
        {
          "name": "_username",
          "type": "string"
        },
        {
          "name": "_review",
          "type": "string"
        },
        {
          "name": "_score",
          "type": "uint256"
        }
      ],
      "name": "addUserReview",
      "outputs": [],
      "payable": false,
      "stateMutability": "nonpayable",
      "type": "function"
    },
    {
      "constant": true,
      "inputs": [
        {
          "name": "_filmId",
          "type": "uint256"
        }
      ],
      "name": "getReview",
      "outputs": [
        {
          "name": "",
          "type": "string"
        },
        {
          "name": "",
          "type": "string"
        },
        {
          "name": "",
          "type": "uint256"
        },
        {
          "name": "",
          "type": "uint256"
        },
        {
          "name": "",
          "type": "string"
        }
      ],
      "payable": false,
      "stateMutability": "view",
      "type": "function"
    },
    {
      "constant": true,
      "inputs": [
        {
          "name": "_userReviewId",
          "type": "uint256"
        }
      ],
      "name": "getUserReview",
      "outputs": [
        {
          "name": "",
          "type": "uint256"
        },
        {
          "name": "",
          "type": "string"
        },
        {
          "name": "",
          "type": "string"
        },
        {
          "name": "",
          "type": "uint256"
        }
      ],
      "payable": false,
      "stateMutability": "view",
      "type": "function"
    }
  ],
  "bytecode": "0x608060405234801561001057600080fd5b50600080819055506000600181905550610c0b8061002f6000396000f300608060405260043610610078576000357c0100000000000000000000000000000000000000000000000000000000900463ffffffff1680630b19181c1461007d57806320500cac1461014057806337119e9314610249578063990581b614610369578063e45fc69b146104f5578063fce52c6b14610520575b600080fd5b34801561008957600080fd5b5061013e60048036038101908080359060200190929190803590602001908201803590602001908080601f0160208091040260200160405190810160405280939291908181526020018383808284378201915050505050509192919290803590602001908201803590602001908080601f01602080910402602001604051908101604052809392919081815260200183838082843782019150505050505091929192908035906020019092919050505061054b565b005b34801561014c57600080fd5b50610247600480360381019080803590602001908201803590602001908080601f0160208091040260200160405190810160405280939291908181526020018383808284378201915050505050509192919290803590602001908201803590602001908080601f01602080910402602001604051908101604052809392919081815260200183838082843782019150505050505091929192908035906020019092919080359060200190929190803590602001908201803590602001908080601f01602080910402602001604051908101604052809392919081815260200183838082843782019150505050505091929192905050506105f5565b005b34801561025557600080fd5b50610274600480360381019080803590602001909291905050506106c2565b604051808581526020018060200180602001848152602001838103835286818151815260200191508051906020019080838360005b838110156102c45780820151818401526020810190506102a9565b50505050905090810190601f1680156102f15780820380516001836020036101000a031916815260200191505b50838103825285818151815260200191508051906020019080838360005b8381101561032a57808201518184015260208101905061030f565b50505050905090810190601f1680156103575780820380516001836020036101000a031916815260200191505b50965050505050505060405180910390f35b34801561037557600080fd5b5061039460048036038101908080359060200190929190505050610874565b60405180806020018060200186815260200185815260200180602001848103845289818151815260200191508051906020019080838360005b838110156103e85780820151818401526020810190506103cd565b50505050905090810190601f1680156104155780820380516001836020036101000a031916815260200191505b50848103835288818151815260200191508051906020019080838360005b8381101561044e578082015181840152602081019050610433565b50505050905090810190601f16801561047b5780820380516001836020036101000a031916815260200191505b50848103825285818151815260200191508051906020019080838360005b838110156104b4578082015181840152602081019050610499565b50505050905090810190601f1680156104e15780820380516001836020036101000a031916815260200191505b509850505050505050505060405180910390f35b34801561050157600080fd5b5061050a610ad5565b6040518082815260200191505060405180910390f35b34801561052c57600080fd5b50610535610adb565b6040518082815260200191505060405180910390f35b610553610ae1565b60018060008282540192505081905550608060405190810160405280868152602001858152602001848152602001838152509050806003600060015481526020019081526020016000206000820151816000015560208201518160010190805190602001906105c3929190610b0a565b5060408201518160020190805190602001906105e0929190610b0a565b50606082015181600301559050505050505050565b6105fd610b8a565b6001600080828254019250508190555060a0604051908101604052808781526020018681526020018581526020018481526020018381525090508060026000805481526020019081526020016000206000820151816000019080519060200190610668929190610b0a565b506020820151816001019080519060200190610685929190610b0a565b50604082015181600201556060820151816003015560808201518160040190805190602001906106b6929190610b0a565b50905050505050505050565b600060608060006106d1610ae1565b600360008781526020019081526020016000206080604051908101604052908160008201548152602001600182018054600181600116156101000203166002900480601f0160208091040260200160405190810160405280929190818152602001828054600181600116156101000203166002900480156107935780601f1061076857610100808354040283529160200191610793565b820191906000526020600020905b81548152906001019060200180831161077657829003601f168201915b50505050508152602001600282018054600181600116156101000203166002900480601f0160208091040260200160405190810160405280929190818152602001828054600181600116156101000203166002900480156108355780601f1061080a57610100808354040283529160200191610835565b820191906000526020600020905b81548152906001019060200180831161081857829003601f168201915b50505050508152602001600382015481525050905080600001518160200151826040015183606001518292508191509450945094509450509193509193565b6060806000806060610884610b8a565b6002600088815260200190815260200160002060a06040519081016040529081600082018054600181600116156101000203166002900480601f01602080910402602001604051908101604052809291908181526020018280546001816001161561010002031660029004801561093c5780601f106109115761010080835404028352916020019161093c565b820191906000526020600020905b81548152906001019060200180831161091f57829003601f168201915b50505050508152602001600182018054600181600116156101000203166002900480601f0160208091040260200160405190810160405280929190818152602001828054600181600116156101000203166002900480156109de5780601f106109b3576101008083540402835291602001916109de565b820191906000526020600020905b8154815290600101906020018083116109c157829003601f168201915b505050505081526020016002820154815260200160038201548152602001600482018054600181600116156101000203166002900480601f016020809104026020016040519081016040528092919081815260200182805460018160011615610100020316600290048015610a945780601f10610a6957610100808354040283529160200191610a94565b820191906000526020600020905b815481529060010190602001808311610a7757829003601f168201915b505050505081525050905080600001518160200151826040015183606001518460800151849450839350809050955095509550955095505091939590929450565b60015481565b60005481565b608060405190810160405280600081526020016060815260200160608152602001600081525090565b828054600181600116156101000203166002900490600052602060002090601f016020900481019282601f10610b4b57805160ff1916838001178555610b79565b82800160010185558215610b79579182015b82811115610b78578251825591602001919060010190610b5d565b5b509050610b869190610bba565b5090565b60a06040519081016040528060608152602001606081526020016000815260200160008152602001606081525090565b610bdc91905b80821115610bd8576000816000905550600101610bc0565b5090565b905600a165627a7a723058208417871eb3e420822544437a785fac16d7448cd36ee9b8f23ba44e82110247be0029",
  "source": "pragma solidity ^0.4.23;\n\ncontract DrewsReviews {\n    \n    uint public reviewIndex;\n    uint public userReviewIndex;\n    \n    mapping (uint => Review) reviewList;\n    mapping (uint => userReview) userReviewList;\n\n\tstruct Review {\n\t\tstring name;\n\t\tstring review;\n\t\tuint reviewDate;\n\t\tuint score;\n\t\tstring imageSource;\n\t}\n\n\tstruct userReview {\n\t\tuint filmId;\n\t\tstring userName;\n\t\tstring review;\n\t\tuint score;\n\t}\n\t\nconstructor () public {\n    reviewIndex = 0;\n    userReviewIndex = 0;\n}\n\nfunction addReview(string _name, string _review, uint _reviewdate, uint _score, string _imageSource) public {\n    reviewIndex += 1;\n    \n    Review memory review = Review (_name, _review, _reviewdate, _score, _imageSource );\n    reviewList[reviewIndex] = review;\n    \n}\n\nfunction addUserReview(uint _filmId, string _username, string _review, uint _score) public {\n    userReviewIndex += 1;\n    \n    userReview memory _userReview = userReview (_filmId, _username, _review, _score);\n    userReviewList[userReviewIndex] = _userReview;\n    \n}\n\nfunction getReview(uint _filmId) view public returns (string, string, uint, uint, string) {\n\tReview memory review = reviewList[_filmId];\n\treturn (review.name, review.review, review.reviewDate, review.score, review.imageSource);\n}\n\nfunction getUserReview(uint _userReviewId) view public returns (uint, string, string, uint) {\n\tuserReview memory _userReview = userReviewList[_userReviewId];\n\treturn (_userReview.filmId, _userReview.userName, _userReview.review, _userReview.score);\n}\n\n}",
  "sourcePath": "/Users/mcplums/Repos/Drews Reviews/contracts/DrewsReviews.sol",
  "compiler": {
    "name": "solc",
    "version": "0.4.24+commit.e67f0147.Emscripten.clang"
  },
  "schemaVersion": "2.0.1",
  "updatedAt": "2018-11-14T16:04:29.551Z"
}