{
  "contractName": "DrewsReviews",
  "abi": [
    {
      "constant": true,
      "inputs": [],
      "name": "owner",
      "outputs": [
        {
          "name": "",
          "type": "address"
        }
      ],
      "payable": false,
      "stateMutability": "view",
      "type": "function"
    },
    {
      "constant": true,
      "inputs": [],
      "name": "userReviewIndex",
      "outputs": [
        {
          "name": "",
          "type": "uint256"
        }
      ],
      "payable": false,
      "stateMutability": "view",
      "type": "function"
    },
    {
      "constant": true,
      "inputs": [],
      "name": "reviewIndex",
      "outputs": [
        {
          "name": "",
          "type": "uint256"
        }
      ],
      "payable": false,
      "stateMutability": "view",
      "type": "function"
    },
    {
      "inputs": [],
      "payable": false,
      "stateMutability": "nonpayable",
      "type": "constructor"
    },
    {
      "anonymous": false,
      "inputs": [
        {
          "indexed": false,
          "name": "_filmId",
          "type": "uint256"
        },
        {
          "indexed": false,
          "name": "_name",
          "type": "string"
        },
        {
          "indexed": false,
          "name": "_review",
          "type": "string"
        },
        {
          "indexed": false,
          "name": "_imageSource",
          "type": "string"
        },
        {
          "indexed": false,
          "name": "_score",
          "type": "uint256"
        }
      ],
      "name": "newReview",
      "type": "event"
    },
    {
      "anonymous": false,
      "inputs": [
        {
          "indexed": false,
          "name": "_filmId",
          "type": "uint256"
        },
        {
          "indexed": false,
          "name": "_name",
          "type": "string"
        },
        {
          "indexed": false,
          "name": "_review",
          "type": "string"
        },
        {
          "indexed": false,
          "name": "_imageSource",
          "type": "string"
        },
        {
          "indexed": false,
          "name": "_score",
          "type": "uint256"
        }
      ],
      "name": "editedReview",
      "type": "event"
    },
    {
      "anonymous": false,
      "inputs": [
        {
          "indexed": false,
          "name": "_filmId",
          "type": "uint256"
        },
        {
          "indexed": false,
          "name": "_userReviewId",
          "type": "uint256"
        },
        {
          "indexed": false,
          "name": "_userName",
          "type": "string"
        },
        {
          "indexed": false,
          "name": "_review",
          "type": "string"
        },
        {
          "indexed": false,
          "name": "_score",
          "type": "uint256"
        }
      ],
      "name": "newUserReview",
      "type": "event"
    },
    {
      "constant": false,
      "inputs": [
        {
          "name": "_name",
          "type": "string"
        },
        {
          "name": "_review",
          "type": "string"
        },
        {
          "name": "_reviewdate",
          "type": "uint256"
        },
        {
          "name": "_score",
          "type": "uint256"
        },
        {
          "name": "_imageSource",
          "type": "string"
        }
      ],
      "name": "addReview",
      "outputs": [],
      "payable": false,
      "stateMutability": "nonpayable",
      "type": "function"
    },
    {
      "constant": false,
      "inputs": [
        {
          "name": "_filmId",
          "type": "uint256"
        },
        {
          "name": "_name",
          "type": "string"
        },
        {
          "name": "_review",
          "type": "string"
        },
        {
          "name": "_reviewdate",
          "type": "uint256"
        },
        {
          "name": "_score",
          "type": "uint256"
        },
        {
          "name": "_imageSource",
          "type": "string"
        }
      ],
      "name": "editReview",
      "outputs": [],
      "payable": false,
      "stateMutability": "nonpayable",
      "type": "function"
    },
    {
      "constant": false,
      "inputs": [
        {
          "name": "_filmId",
          "type": "uint256"
        },
        {
          "name": "_username",
          "type": "string"
        },
        {
          "name": "_review",
          "type": "string"
        },
        {
          "name": "_score",
          "type": "uint256"
        }
      ],
      "name": "addUserReview",
      "outputs": [],
      "payable": false,
      "stateMutability": "nonpayable",
      "type": "function"
    },
    {
      "constant": true,
      "inputs": [
        {
          "name": "_filmId",
          "type": "uint256"
        }
      ],
      "name": "getReview",
      "outputs": [
        {
          "name": "",
          "type": "string"
        },
        {
          "name": "",
          "type": "string"
        },
        {
          "name": "",
          "type": "uint256"
        },
        {
          "name": "",
          "type": "uint256"
        },
        {
          "name": "",
          "type": "string"
        }
      ],
      "payable": false,
      "stateMutability": "view",
      "type": "function"
    },
    {
      "constant": true,
      "inputs": [
        {
          "name": "_userReviewId",
          "type": "uint256"
        }
      ],
      "name": "getUserReview",
      "outputs": [
        {
          "name": "",
          "type": "uint256"
        },
        {
          "name": "",
          "type": "string"
        },
        {
          "name": "",
          "type": "string"
        },
        {
          "name": "",
          "type": "uint256"
        }
      ],
      "payable": false,
      "stateMutability": "view",
      "type": "function"
    }
  ],
  "bytecode": "0x6080604052737753233bfe961ec770602e3f80900e26a5357f36600260006101000a81548173ffffffffffffffffffffffffffffffffffffffff021916908373ffffffffffffffffffffffffffffffffffffffff16021790555034801561006557600080fd5b5060008081905550600060018190555061129f806100846000396000f30060806040526004361061008e576000357c0100000000000000000000000000000000000000000000000000000000900463ffffffff1680630b19181c1461009357806320500cac1461015657806337119e931461025f5780638da5cb5b1461037f578063990581b6146103d6578063ddfcb48914610562578063e45fc69b14610675578063fce52c6b146106a0575b600080fd5b34801561009f57600080fd5b5061015460048036038101908080359060200190929190803590602001908201803590602001908080601f0160208091040260200160405190810160405280939291908181526020018383808284378201915050505050509192919290803590602001908201803590602001908080601f0160208091040260200160405190810160405280939291908181526020018383808284378201915050505050509192919290803590602001909291905050506106cb565b005b34801561016257600080fd5b5061025d600480360381019080803590602001908201803590602001908080601f0160208091040260200160405190810160405280939291908181526020018383808284378201915050505050509192919290803590602001908201803590602001908080601f01602080910402602001604051908101604052809392919081815260200183838082843782019150505050505091929192908035906020019092919080359060200190929190803590602001908201803590602001908080601f0160208091040260200160405190810160405280939291908181526020018383808284378201915050505050509192919290505050610898565b005b34801561026b57600080fd5b5061028a60048036038101908080359060200190929190505050610aed565b604051808581526020018060200180602001848152602001838103835286818151815260200191508051906020019080838360005b838110156102da5780820151818401526020810190506102bf565b50505050905090810190601f1680156103075780820380516001836020036101000a031916815260200191505b50838103825285818151815260200191508051906020019080838360005b83811015610340578082015181840152602081019050610325565b50505050905090810190601f16801561036d5780820380516001836020036101000a031916815260200191505b50965050505050505060405180910390f35b34801561038b57600080fd5b50610394610c9f565b604051808273ffffffffffffffffffffffffffffffffffffffff1673ffffffffffffffffffffffffffffffffffffffff16815260200191505060405180910390f35b3480156103e257600080fd5b5061040160048036038101908080359060200190929190505050610cc5565b60405180806020018060200186815260200185815260200180602001848103845289818151815260200191508051906020019080838360005b8381101561045557808201518184015260208101905061043a565b50505050905090810190601f1680156104825780820380516001836020036101000a031916815260200191505b50848103835288818151815260200191508051906020019080838360005b838110156104bb5780820151818401526020810190506104a0565b50505050905090810190601f1680156104e85780820380516001836020036101000a031916815260200191505b50848103825285818151815260200191508051906020019080838360005b83811015610521578082015181840152602081019050610506565b50505050905090810190601f16801561054e5780820380516001836020036101000a031916815260200191505b509850505050505050505060405180910390f35b34801561056e57600080fd5b5061067360048036038101908080359060200190929190803590602001908201803590602001908080601f0160208091040260200160405190810160405280939291908181526020018383808284378201915050505050509192919290803590602001908201803590602001908080601f01602080910402602001604051908101604052809392919081815260200183838082843782019150505050505091929192908035906020019092919080359060200190929190803590602001908201803590602001908080601f0160208091040260200160405190810160405280939291908181526020018383808284378201915050505050509192919290505050610f26565b005b34801561068157600080fd5b5061068a611169565b6040518082815260200191505060405180910390f35b3480156106ac57600080fd5b506106b561116f565b6040518082815260200191505060405180910390f35b6106d3611175565b600180600082825401925050819055506080604051908101604052808681526020018581526020018481526020018381525090508060046000600154815260200190815260200160002060008201518160000155602082015181600101908051906020019061074392919061119e565b50604082015181600201908051906020019061076092919061119e565b50606082015181600301559050507fd5288edcfc10a1de6a97c402599ad3cc1d03c339725e021efdfa81ae6fc0952485600154868686604051808681526020018581526020018060200180602001848152602001838103835286818151815260200191508051906020019080838360005b838110156107ec5780820151818401526020810190506107d1565b50505050905090810190601f1680156108195780820380516001836020036101000a031916815260200191505b50838103825285818151815260200191508051906020019080838360005b83811015610852578082015181840152602081019050610837565b50505050905090810190601f16801561087f5780820380516001836020036101000a031916815260200191505b5097505050505050505060405180910390a15050505050565b6108a061121e565b6001600080828254019250508190555060a060405190810160405280878152602001868152602001858152602001848152602001838152509050806003600080548152602001908152602001600020600082015181600001908051906020019061090b92919061119e565b50602082015181600101908051906020019061092892919061119e565b506040820151816002015560608201518160030155608082015181600401908051906020019061095992919061119e565b509050507f01e672598a989edf6316dd8a38374068fd7a0aea8e78093a6e38b3d1b0fff6c86000548787858760405180868152602001806020018060200180602001858152602001848103845288818151815260200191508051906020019080838360005b838110156109d95780820151818401526020810190506109be565b50505050905090810190601f168015610a065780820380516001836020036101000a031916815260200191505b50848103835287818151815260200191508051906020019080838360005b83811015610a3f578082015181840152602081019050610a24565b50505050905090810190601f168015610a6c5780820380516001836020036101000a031916815260200191505b50848103825286818151815260200191508051906020019080838360005b83811015610aa5578082015181840152602081019050610a8a565b50505050905090810190601f168015610ad25780820380516001836020036101000a031916815260200191505b509850505050505050505060405180910390a1505050505050565b60006060806000610afc611175565b600460008781526020019081526020016000206080604051908101604052908160008201548152602001600182018054600181600116156101000203166002900480601f016020809104026020016040519081016040528092919081815260200182805460018160011615610100020316600290048015610bbe5780601f10610b9357610100808354040283529160200191610bbe565b820191906000526020600020905b815481529060010190602001808311610ba157829003601f168201915b50505050508152602001600282018054600181600116156101000203166002900480601f016020809104026020016040519081016040528092919081815260200182805460018160011615610100020316600290048015610c605780601f10610c3557610100808354040283529160200191610c60565b820191906000526020600020905b815481529060010190602001808311610c4357829003601f168201915b50505050508152602001600382015481525050905080600001518160200151826040015183606001518292508191509450945094509450509193509193565b600260009054906101000a900473ffffffffffffffffffffffffffffffffffffffff1681565b6060806000806060610cd561121e565b6003600088815260200190815260200160002060a06040519081016040529081600082018054600181600116156101000203166002900480601f016020809104026020016040519081016040528092919081815260200182805460018160011615610100020316600290048015610d8d5780601f10610d6257610100808354040283529160200191610d8d565b820191906000526020600020905b815481529060010190602001808311610d7057829003601f168201915b50505050508152602001600182018054600181600116156101000203166002900480601f016020809104026020016040519081016040528092919081815260200182805460018160011615610100020316600290048015610e2f5780601f10610e0457610100808354040283529160200191610e2f565b820191906000526020600020905b815481529060010190602001808311610e1257829003601f168201915b505050505081526020016002820154815260200160038201548152602001600482018054600181600116156101000203166002900480601f016020809104026020016040519081016040528092919081815260200182805460018160011615610100020316600290048015610ee55780601f10610eba57610100808354040283529160200191610ee5565b820191906000526020600020905b815481529060010190602001808311610ec857829003601f168201915b505050505081525050905080600001518160200151826040015183606001518460800151849450839350809050955095509550955095505091939590929450565b610f2e61121e565b60a06040519081016040528087815260200186815260200185815260200184815260200183815250905080600360008981526020019081526020016000206000820151816000019080519060200190610f8892919061119e565b506020820151816001019080519060200190610fa592919061119e565b5060408201518160020155606082015181600301556080820151816004019080519060200190610fd692919061119e565b509050507f5ab229bb4e86d39fe56223af2cf284fe0e1e43b5ae821ea534884835923f9559878787858760405180868152602001806020018060200180602001858152602001848103845288818151815260200191508051906020019080838360005b83811015611054578082015181840152602081019050611039565b50505050905090810190601f1680156110815780820380516001836020036101000a031916815260200191505b50848103835287818151815260200191508051906020019080838360005b838110156110ba57808201518184015260208101905061109f565b50505050905090810190601f1680156110e75780820380516001836020036101000a031916815260200191505b50848103825286818151815260200191508051906020019080838360005b83811015611120578082015181840152602081019050611105565b50505050905090810190601f16801561114d5780820380516001836020036101000a031916815260200191505b509850505050505050505060405180910390a150505050505050565b60015481565b60005481565b608060405190810160405280600081526020016060815260200160608152602001600081525090565b828054600181600116156101000203166002900490600052602060002090601f016020900481019282601f106111df57805160ff191683800117855561120d565b8280016001018555821561120d579182015b8281111561120c5782518255916020019190600101906111f1565b5b50905061121a919061124e565b5090565b60a06040519081016040528060608152602001606081526020016000815260200160008152602001606081525090565b61127091905b8082111561126c576000816000905550600101611254565b5090565b905600a165627a7a7230582041beb94c8148049f2d6a22941bd1593e8daabda9664451d4fd0e27c9076a2ffc0029",
  "source": "pragma solidity ^0.4.23;\n\ncontract DrewsReviews {\n    \n    uint public reviewIndex;\n    uint public userReviewIndex;\n    address public owner = 0x7753233bfe961eC770602e3F80900E26A5357F36;\n    \n    mapping (uint => Review) reviewList;\n    mapping (uint => userReview) userReviewList;\n\n\n\tstruct Review {\n\t\tstring name;\n\t\tstring review;\n\t\tuint reviewDate;\n\t\tuint score;\n\t\tstring imageSource;\n\t}\n\n\tstruct userReview {\n\t\tuint filmId;\n\t\tstring userName;\n\t\tstring review;\n\t\tuint score;\n\t}\n\t\nconstructor () public {\n    reviewIndex = 0;\n    userReviewIndex = 0;\n}\n\nevent newReview(uint _filmId, string _name, string _review, string _imageSource, uint _score);\n\nevent editedReview(uint _filmId, string _name, string _review, string _imageSource, uint _score);\n\nevent newUserReview(uint _filmId, uint _userReviewId, string _userName, string _review, uint _score);\n\nfunction addReview(string _name, string _review, uint _reviewdate, uint _score, string _imageSource) public {\n\t//assert(msg.sender == owner);\n\n    reviewIndex += 1;\n    Review memory review = Review (_name, _review, _reviewdate, _score, _imageSource );\n    reviewList[reviewIndex] = review;\n    emit newReview(reviewIndex, _name, _review, _imageSource, _score);\n}\n\nfunction editReview(uint _filmId, string _name, string _review, uint _reviewdate, uint _score, string _imageSource) public {\n\t//assert(msg.sender == owner);\n    \n    Review memory review = Review (_name, _review, _reviewdate, _score, _imageSource );\n\n    reviewList[_filmId] = review;\n    emit editedReview(_filmId, _name, _review, _imageSource, _score);\n}\n\nfunction addUserReview(uint _filmId, string _username, string _review, uint _score) public {\n    userReviewIndex += 1;\n    \n    userReview memory _userReview = userReview (_filmId, _username, _review, _score);\n    userReviewList[userReviewIndex] = _userReview;\n    emit newUserReview(_filmId, userReviewIndex, _username, _review, _score);\n}\n\nfunction getReview(uint _filmId) view public returns (string, string, uint, uint, string) {\n\tReview memory review = reviewList[_filmId];\n\treturn (review.name, review.review, review.reviewDate, review.score, review.imageSource);\n}\n\nfunction getUserReview(uint _userReviewId) view public returns (uint, string, string, uint) {\n\tuserReview memory _userReview = userReviewList[_userReviewId];\n\treturn (_userReview.filmId, _userReview.userName, _userReview.review, _userReview.score);\n}\n\n}",
  "sourcePath": "/Users/mcplums/Repos/Drews Reviews/contracts/DrewsReviews.sol",
  "compiler": {
    "name": "solc",
    "version": "0.4.24+commit.e67f0147.Emscripten.clang"
  },
  "schemaVersion": "2.0.1",
  "updatedAt": "2018-11-27T18:07:37.487Z"
}