{
  "contractName": "DrewsReviews",
  "abi": [
    {
      "constant": true,
      "inputs": [],
      "name": "owner",
      "outputs": [
        {
          "name": "",
          "type": "address"
        }
      ],
      "payable": false,
      "stateMutability": "view",
      "type": "function"
    },
    {
      "constant": true,
      "inputs": [],
      "name": "userReviewIndex",
      "outputs": [
        {
          "name": "",
          "type": "uint256"
        }
      ],
      "payable": false,
      "stateMutability": "view",
      "type": "function"
    },
    {
      "constant": true,
      "inputs": [],
      "name": "reviewIndex",
      "outputs": [
        {
          "name": "",
          "type": "uint256"
        }
      ],
      "payable": false,
      "stateMutability": "view",
      "type": "function"
    },
    {
      "inputs": [],
      "payable": false,
      "stateMutability": "nonpayable",
      "type": "constructor"
    },
    {
      "anonymous": false,
      "inputs": [
        {
          "indexed": false,
          "name": "_filmId",
          "type": "uint256"
        },
        {
          "indexed": false,
          "name": "_name",
          "type": "string"
        },
        {
          "indexed": false,
          "name": "_review",
          "type": "string"
        },
        {
          "indexed": false,
          "name": "_imageSource",
          "type": "string"
        },
        {
          "indexed": false,
          "name": "_score",
          "type": "uint256"
        }
      ],
      "name": "newReview",
      "type": "event"
    },
    {
      "anonymous": false,
      "inputs": [
        {
          "indexed": false,
          "name": "_filmId",
          "type": "uint256"
        },
        {
          "indexed": false,
          "name": "_name",
          "type": "string"
        },
        {
          "indexed": false,
          "name": "_review",
          "type": "string"
        },
        {
          "indexed": false,
          "name": "_imageSource",
          "type": "string"
        },
        {
          "indexed": false,
          "name": "_score",
          "type": "uint256"
        },
        {
          "indexed": false,
          "name": "_deleted",
          "type": "uint256"
        }
      ],
      "name": "editedReview",
      "type": "event"
    },
    {
      "anonymous": false,
      "inputs": [
        {
          "indexed": false,
          "name": "_filmId",
          "type": "uint256"
        },
        {
          "indexed": false,
          "name": "_userReviewId",
          "type": "uint256"
        },
        {
          "indexed": false,
          "name": "_userName",
          "type": "string"
        },
        {
          "indexed": false,
          "name": "_review",
          "type": "string"
        },
        {
          "indexed": false,
          "name": "_score",
          "type": "uint256"
        }
      ],
      "name": "newUserReview",
      "type": "event"
    },
    {
      "anonymous": false,
      "inputs": [
        {
          "indexed": false,
          "name": "_filmId",
          "type": "uint256"
        },
        {
          "indexed": false,
          "name": "_userReviewId",
          "type": "uint256"
        },
        {
          "indexed": false,
          "name": "_userName",
          "type": "string"
        },
        {
          "indexed": false,
          "name": "_review",
          "type": "string"
        },
        {
          "indexed": false,
          "name": "_score",
          "type": "uint256"
        },
        {
          "indexed": false,
          "name": "_deleted",
          "type": "uint256"
        }
      ],
      "name": "editedUserReview",
      "type": "event"
    },
    {
      "constant": false,
      "inputs": [
        {
          "name": "_name",
          "type": "string"
        },
        {
          "name": "_review",
          "type": "string"
        },
        {
          "name": "_reviewdate",
          "type": "uint256"
        },
        {
          "name": "_score",
          "type": "uint256"
        },
        {
          "name": "_imageSource",
          "type": "string"
        }
      ],
      "name": "addReview",
      "outputs": [],
      "payable": false,
      "stateMutability": "nonpayable",
      "type": "function"
    },
    {
      "constant": false,
      "inputs": [
        {
          "name": "_filmId",
          "type": "uint256"
        },
        {
          "name": "_name",
          "type": "string"
        },
        {
          "name": "_review",
          "type": "string"
        },
        {
          "name": "_reviewdate",
          "type": "uint256"
        },
        {
          "name": "_score",
          "type": "uint256"
        },
        {
          "name": "_imageSource",
          "type": "string"
        },
        {
          "name": "_deleted",
          "type": "uint256"
        }
      ],
      "name": "editReview",
      "outputs": [],
      "payable": false,
      "stateMutability": "nonpayable",
      "type": "function"
    },
    {
      "constant": false,
      "inputs": [
        {
          "name": "_userReviewId",
          "type": "uint256"
        }
      ],
      "name": "deleteUserReview",
      "outputs": [],
      "payable": false,
      "stateMutability": "nonpayable",
      "type": "function"
    },
    {
      "constant": false,
      "inputs": [
        {
          "name": "_filmId",
          "type": "uint256"
        },
        {
          "name": "_username",
          "type": "string"
        },
        {
          "name": "_review",
          "type": "string"
        },
        {
          "name": "_score",
          "type": "uint256"
        }
      ],
      "name": "addUserReview",
      "outputs": [],
      "payable": false,
      "stateMutability": "nonpayable",
      "type": "function"
    },
    {
      "constant": true,
      "inputs": [
        {
          "name": "_filmId",
          "type": "uint256"
        }
      ],
      "name": "getReview",
      "outputs": [
        {
          "name": "",
          "type": "string"
        },
        {
          "name": "",
          "type": "string"
        },
        {
          "name": "",
          "type": "uint256"
        },
        {
          "name": "",
          "type": "uint256"
        },
        {
          "name": "",
          "type": "string"
        },
        {
          "name": "",
          "type": "uint256"
        }
      ],
      "payable": false,
      "stateMutability": "view",
      "type": "function"
    },
    {
      "constant": true,
      "inputs": [
        {
          "name": "_userReviewId",
          "type": "uint256"
        }
      ],
      "name": "getUserReview",
      "outputs": [
        {
          "name": "",
          "type": "uint256"
        },
        {
          "name": "",
          "type": "string"
        },
        {
          "name": "",
          "type": "string"
        },
        {
          "name": "",
          "type": "uint256"
        },
        {
          "name": "",
          "type": "uint256"
        }
      ],
      "payable": false,
      "stateMutability": "view",
      "type": "function"
    }
  ],
  "bytecode": "0x6080604052737753233bfe961ec770602e3f80900e26a5357f36600260006101000a81548173ffffffffffffffffffffffffffffffffffffffff021916908373ffffffffffffffffffffffffffffffffffffffff16021790555034801561006557600080fd5b506000808190555060006001819055506116db806100846000396000f300608060405260043610610099576000357c0100000000000000000000000000000000000000000000000000000000900463ffffffff1680630b19181c1461009e57806320500cac1461016157806337119e931461026a5780638da5cb5b146103915780638e7317a6146103e8578063990581b6146105055780639a380c1614610698578063e45fc69b146106c5578063fce52c6b146106f0575b600080fd5b3480156100aa57600080fd5b5061015f60048036038101908080359060200190929190803590602001908201803590602001908080601f0160208091040260200160405190810160405280939291908181526020018383808284378201915050505050509192919290803590602001908201803590602001908080601f01602080910402602001604051908101604052809392919081815260200183838082843782019150505050505091929192908035906020019092919050505061071b565b005b34801561016d57600080fd5b50610268600480360381019080803590602001908201803590602001908080601f0160208091040260200160405190810160405280939291908181526020018383808284378201915050505050509192919290803590602001908201803590602001908080601f01602080910402602001604051908101604052809392919081815260200183838082843782019150505050505091929192908035906020019092919080359060200190929190803590602001908201803590602001908080601f01602080910402602001604051908101604052809392919081815260200183838082843782019150505050505091929192905050506108f9565b005b34801561027657600080fd5b5061029560048036038101908080359060200190929190505050610b5f565b604051808681526020018060200180602001858152602001848152602001838103835287818151815260200191508051906020019080838360005b838110156102eb5780820151818401526020810190506102d0565b50505050905090810190601f1680156103185780820380516001836020036101000a031916815260200191505b50838103825286818151815260200191508051906020019080838360005b83811015610351578082015181840152602081019050610336565b50505050905090810190601f16801561037e5780820380516001836020036101000a031916815260200191505b5097505050505050505060405180910390f35b34801561039d57600080fd5b506103a6610d25565b604051808273ffffffffffffffffffffffffffffffffffffffff1673ffffffffffffffffffffffffffffffffffffffff16815260200191505060405180910390f35b3480156103f457600080fd5b5061050360048036038101908080359060200190929190803590602001908201803590602001908080601f0160208091040260200160405190810160405280939291908181526020018383808284378201915050505050509192919290803590602001908201803590602001908080601f01602080910402602001604051908101604052809392919081815260200183838082843782019150505050505091929192908035906020019092919080359060200190929190803590602001908201803590602001908080601f016020809104026020016040519081016040528093929190818152602001838380828437820191505050505050919291929080359060200190929190505050610d4b565b005b34801561051157600080fd5b5061053060048036038101908080359060200190929190505050610fa7565b6040518080602001806020018781526020018681526020018060200185815260200184810384528a818151815260200191508051906020019080838360005b8381101561058a57808201518184015260208101905061056f565b50505050905090810190601f1680156105b75780820380516001836020036101000a031916815260200191505b50848103835289818151815260200191508051906020019080838360005b838110156105f05780820151818401526020810190506105d5565b50505050905090810190601f16801561061d5780820380516001836020036101000a031916815260200191505b50848103825286818151815260200191508051906020019080838360005b8381101561065657808201518184015260208101905061063b565b50505050905090810190601f1680156106835780820380516001836020036101000a031916815260200191505b50995050505050505050505060405180910390f35b3480156106a457600080fd5b506106c36004803603810190808035906020019092919050505061121b565b005b3480156106d157600080fd5b506106da611597565b6040518082815260200191505060405180910390f35b3480156106fc57600080fd5b5061070561159d565b6040518082815260200191505060405180910390f35b6107236115a3565b6001806000828254019250508190555060a060405190810160405280868152602001858152602001848152602001838152602001600081525090508060046000600154815260200190815260200160002060008201518160000155602082015181600101908051906020019061079a9291906115d3565b5060408201518160020190805190602001906107b79291906115d3565b5060608201518160030155608082015181600401559050507fd5288edcfc10a1de6a97c402599ad3cc1d03c339725e021efdfa81ae6fc0952485600154868686604051808681526020018581526020018060200180602001848152602001838103835286818151815260200191508051906020019080838360005b8381101561084d578082015181840152602081019050610832565b50505050905090810190601f16801561087a5780820380516001836020036101000a031916815260200191505b50838103825285818151815260200191508051906020019080838360005b838110156108b3578082015181840152602081019050610898565b50505050905090810190601f1680156108e05780820380516001836020036101000a031916815260200191505b5097505050505050505060405180910390a15050505050565b610901611653565b6001600080828254019250508190555060c0604051908101604052808781526020018681526020018581526020018481526020018381526020016000815250905080600360008054815260200190815260200160002060008201518160000190805190602001906109739291906115d3565b5060208201518160010190805190602001906109909291906115d3565b50604082015181600201556060820151816003015560808201518160040190805190602001906109c19291906115d3565b5060a082015181600501559050507f01e672598a989edf6316dd8a38374068fd7a0aea8e78093a6e38b3d1b0fff6c86000548787858760405180868152602001806020018060200180602001858152602001848103845288818151815260200191508051906020019080838360005b83811015610a4b578082015181840152602081019050610a30565b50505050905090810190601f168015610a785780820380516001836020036101000a031916815260200191505b50848103835287818151815260200191508051906020019080838360005b83811015610ab1578082015181840152602081019050610a96565b50505050905090810190601f168015610ade5780820380516001836020036101000a031916815260200191505b50848103825286818151815260200191508051906020019080838360005b83811015610b17578082015181840152602081019050610afc565b50505050905090810190601f168015610b445780820380516001836020036101000a031916815260200191505b509850505050505050505060405180910390a1505050505050565b6000606080600080610b6f6115a3565b6004600088815260200190815260200160002060a0604051908101604052908160008201548152602001600182018054600181600116156101000203166002900480601f016020809104026020016040519081016040528092919081815260200182805460018160011615610100020316600290048015610c315780601f10610c0657610100808354040283529160200191610c31565b820191906000526020600020905b815481529060010190602001808311610c1457829003601f168201915b50505050508152602001600282018054600181600116156101000203166002900480601f016020809104026020016040519081016040528092919081815260200182805460018160011615610100020316600290048015610cd35780601f10610ca857610100808354040283529160200191610cd3565b820191906000526020600020905b815481529060010190602001808311610cb657829003601f168201915b5050505050815260200160038201548152602001600482015481525050905080600001518160200151826040015183606001518460800151839350829250955095509550955095505091939590929450565b600260009054906101000a900473ffffffffffffffffffffffffffffffffffffffff1681565b610d53611653565b60c06040519081016040528088815260200187815260200186815260200185815260200184815260200183815250905080600360008a81526020019081526020016000206000820151816000019080519060200190610db39291906115d3565b506020820151816001019080519060200190610dd09291906115d3565b5060408201518160020155606082015181600301556080820151816004019080519060200190610e019291906115d3565b5060a082015181600501559050507f39a66161a0ff0b6832d2f60d015574cacd274a911f3e0447ec28379b154173c088888886888760405180878152602001806020018060200180602001868152602001858152602001848103845289818151815260200191508051906020019080838360005b83811015610e90578082015181840152602081019050610e75565b50505050905090810190601f168015610ebd5780820380516001836020036101000a031916815260200191505b50848103835288818151815260200191508051906020019080838360005b83811015610ef6578082015181840152602081019050610edb565b50505050905090810190601f168015610f235780820380516001836020036101000a031916815260200191505b50848103825287818151815260200191508051906020019080838360005b83811015610f5c578082015181840152602081019050610f41565b50505050905090810190601f168015610f895780820380516001836020036101000a031916815260200191505b50995050505050505050505060405180910390a15050505050505050565b60608060008060606000610fb9611653565b6003600089815260200190815260200160002060c06040519081016040529081600082018054600181600116156101000203166002900480601f0160208091040260200160405190810160405280929190818152602001828054600181600116156101000203166002900480156110715780601f1061104657610100808354040283529160200191611071565b820191906000526020600020905b81548152906001019060200180831161105457829003601f168201915b50505050508152602001600182018054600181600116156101000203166002900480601f0160208091040260200160405190810160405280929190818152602001828054600181600116156101000203166002900480156111135780601f106110e857610100808354040283529160200191611113565b820191906000526020600020905b8154815290600101906020018083116110f657829003601f168201915b505050505081526020016002820154815260200160038201548152602001600482018054600181600116156101000203166002900480601f0160208091040260200160405190810160405280929190818152602001828054600181600116156101000203166002900480156111c95780601f1061119e576101008083540402835291602001916111c9565b820191906000526020600020905b8154815290600101906020018083116111ac57829003601f168201915b505050505081526020016005820154815250509050806000015181602001518260400151836060015184608001518560a001518595508494508191509650965096509650965096505091939550919395565b6112236115a3565b61122b6115a3565b6004600084815260200190815260200160002060a0604051908101604052908160008201548152602001600182018054600181600116156101000203166002900480601f0160208091040260200160405190810160405280929190818152602001828054600181600116156101000203166002900480156112ed5780601f106112c2576101008083540402835291602001916112ed565b820191906000526020600020905b8154815290600101906020018083116112d057829003601f168201915b50505050508152602001600282018054600181600116156101000203166002900480601f01602080910402602001604051908101604052809291908181526020018280546001816001161561010002031660029004801561138f5780601f106113645761010080835404028352916020019161138f565b820191906000526020600020905b81548152906001019060200180831161137257829003601f168201915b5050505050815260200160038201548152602001600482015481525050915060a060405190810160405280836000015181526020018360200151815260200183604001518152602001836060015181526020016001815250905080600460008581526020019081526020016000206000820151816000015560208201518160010190805190602001906114239291906115d3565b5060408201518160020190805190602001906114409291906115d3565b5060608201518160030155608082015181600401559050507f385526a860876564022074cdd0c859e561fab6b0f8284565b168f1c49f21392d8260000151848460200151856040015186606001516001604051808781526020018681526020018060200180602001858152602001848152602001838103835287818151815260200191508051906020019080838360005b838110156114ec5780820151818401526020810190506114d1565b50505050905090810190601f1680156115195780820380516001836020036101000a031916815260200191505b50838103825286818151815260200191508051906020019080838360005b83811015611552578082015181840152602081019050611537565b50505050905090810190601f16801561157f5780820380516001836020036101000a031916815260200191505b509850505050505050505060405180910390a1505050565b60015481565b60005481565b60a06040519081016040528060008152602001606081526020016060815260200160008152602001600081525090565b828054600181600116156101000203166002900490600052602060002090601f016020900481019282601f1061161457805160ff1916838001178555611642565b82800160010185558215611642579182015b82811115611641578251825591602001919060010190611626565b5b50905061164f919061168a565b5090565b60c0604051908101604052806060815260200160608152602001600081526020016000815260200160608152602001600081525090565b6116ac91905b808211156116a8576000816000905550600101611690565b5090565b905600a165627a7a72305820953574031220d502fe306c33cf295bcc94277816b826a797fb276fcfd74a79cd0029",
  "source": "pragma solidity ^0.4.23;\n\ncontract DrewsReviews {\n    \n    uint public reviewIndex;\n    uint public userReviewIndex;\n    address public owner = 0x7753233bfe961eC770602e3F80900E26A5357F36;\n    \n    mapping (uint => Review) reviewList;\n    mapping (uint => userReview) userReviewList;\n\n\n\tstruct Review {\n\t\tstring name;\n\t\tstring review;\n\t\tuint reviewDate;\n\t\tuint score;\n\t\tstring imageSource;\n\t\tuint deleted;\n\t}\n\n\tstruct userReview {\n\t\tuint filmId;\n\t\tstring userName;\n\t\tstring review;\n\t\tuint score;\n\t\tuint deleted;\n\t}\n\t\nconstructor () public {\n    reviewIndex = 0;\n    userReviewIndex = 0;\n}\n\nevent newReview(uint _filmId, string _name, string _review, string _imageSource, uint _score);\n\nevent editedReview(uint _filmId, string _name, string _review, string _imageSource, uint _score, uint _deleted);\n\nevent newUserReview(uint _filmId, uint _userReviewId, string _userName, string _review, uint _score);\n\nevent editedUserReview(uint _filmId, uint _userReviewId, string _userName, string _review, uint _score, uint _deleted);\n\nfunction addReview(string _name, string _review, uint _reviewdate, uint _score, string _imageSource) public {\n\t//assert(msg.sender == owner);\n\n    reviewIndex += 1;\n    Review memory review = Review (_name, _review, _reviewdate, _score, _imageSource, 0 );\n    reviewList[reviewIndex] = review;\n    emit newReview(reviewIndex, _name, _review, _imageSource, _score);\n}\n\nfunction editReview(uint _filmId, string _name, string _review, uint _reviewdate, uint _score, string _imageSource, uint _deleted) public {\n\t//assert(msg.sender == owner);\n    \n    Review memory review = Review (_name, _review, _reviewdate, _score, _imageSource, _deleted );\n\n    reviewList[_filmId] = review;\n    emit editedReview(_filmId, _name, _review, _imageSource, _score, _deleted);\n}\n\nfunction deleteUserReview(uint _userReviewId) public {\n\t//assert(msg.sender == owner);\n\n\tuserReview memory _originalReview = userReviewList[_userReviewId];\n    \n    userReview memory _userReview = userReview ( _originalReview.filmId, _originalReview.userName, _originalReview.review, _originalReview.score, 1);\n    userReviewList[_userReviewId] = _userReview;\n    emit editedUserReview(_originalReview.filmId, _userReviewId, _originalReview.userName, _originalReview.review, _originalReview.score, 1);\n}\n\nfunction addUserReview(uint _filmId, string _username, string _review, uint _score) public {\n    userReviewIndex += 1;\n    \n    userReview memory _userReview = userReview (_filmId, _username, _review, _score, 0);\n    userReviewList[userReviewIndex] = _userReview;\n    emit newUserReview(_filmId, userReviewIndex, _username, _review, _score);\n}\n\nfunction getReview(uint _filmId) view public returns (string, string, uint, uint, string, uint) {\n\tReview memory review = reviewList[_filmId];\n\treturn (review.name, review.review, review.reviewDate, review.score, review.imageSource, review.deleted);\n}\n\nfunction getUserReview(uint _userReviewId) view public returns (uint, string, string, uint, uint) {\n\tuserReview memory _userReview = userReviewList[_userReviewId];\n\treturn (_userReview.filmId, _userReview.userName, _userReview.review, _userReview.score, _userReview.deleted);\n}\n\n}",
  "sourcePath": "/Users/mcplums/Repos/Drews Reviews/contracts/DrewsReviews.sol",
  "compiler": {
    "name": "solc",
    "version": "0.4.24+commit.e67f0147.Emscripten.clang"
  },
  "schemaVersion": "2.0.1",
  "updatedAt": "2018-12-04T18:00:29.397Z"
}